:020000040000FA
:060000000A128A110C280F
:10000800FE00030EF2000A08F3000A128A11C6293C
:100018000A128A110F280A128A115D220A128A11FD
:10002800B0000A128A115E220A128A11B1000A125D
:100038008A115F220A128A11B2000A128A116022FA
:100048000A128A11B300A001A101A201A301A4010F
:10005800A501A601A701A801A901F601F701F80168
:10006800F90183010A128A1139280A128A114C22CD
:100078000A128A118B170B17831603130C14831299
:100088000313901010169016FF308E009C308F00CE
:1000980010140710871097151715831603130711E7
:1000A8007C309200831203131214921012158813D5
:1000B8000A128A1136220A128A117508831203134A
:1000C800AF007408AE0086196A286B287C28413076
:1000D80083120313AD00ED30AC00AC0B7128AD0BEF
:1000E8007128762883120313A009A1098030880695
:1000F800861A7F288028A028071C83288428A028FF
:10010800871887288828A0280130A8000030A9006F
:10011800A601A7010030F400F5000A128A11152281
:100128000A128A118312031307108710B001B10154
:10013800A401A501A201A301061BA328A428B12894
:100148000130A6000030A7003230F4000030F5007E
:100158000A128A1115220A128A1183120313861BA6
:10016800B628B728D9280718BA28BB28D928871C41
:10017800BE28BF28D9280130B2000030B300A6013C
:10018800A7010030F400F5000A128A1115220A129C
:100198008A1183120313071087100130B000003052
:1001A800B100A201A301A401A50132033304031D78
:1001B800DE28DF28E1288812081728032904031DF0
:1001C800E628E728E9288816081332083304031DAF
:1001D800EE28EF28F62822032304031DF428F52827
:1001E800F628081328082904031DFB28FC280329DE
:1001F80024032504031D0129022903298812200844
:100208002104031D0829092991292F08803AFF0094
:1002180085307F02031D1229DD302E02031C1529AB
:1002280016294C29831203132808290403191D29A8
:100238001E294C2924082504031D232924294C2977
:100248000710871426032704031D2B292C29362978
:100258006430F4000030F5000A128A1115220A12DF
:100268008A113F29C830F4000030F5000A128A11BB
:1002780015220A128A1183120313A801A901B201D7
:10028800B3010130A4000030A500A201A301B729E1
:10029800831203132F08803AFF0083307F02031D67
:1002A8005729E8302E0203185A295B29B7298312E7
:1002B800031332083304031962296329B729220872
:1002C8002304031D68296929B72907148710260301
:1002D8002704031D702971297B296430F40000303C
:1002E800F5000A128A1115220A128A118429C830C7
:1002F800F4000030F5000A128A1115220A128A1138
:1003080083120313B201B301A801A9010130A200AD
:100318000030A300A401A501B7290618942995293E
:10032800A42932033304031D9A299B29A4290714FD
:10033800871026032704031DA229A3297B297129D5
:100348008618A729A829B72928032904031DAD2938
:10035800AE29B7290710871426032704031DB529DA
:10036800B62936292C291A3083120313AD00F73029
:10037800AC00AC0BBD29AD0BBD29C2295C280A1203
:100388008A110C28831203130C1CCB29CC290E2AA2
:100398000130F8070318F90A0030F90778037904DF
:1003A800031DD729D8290D2A760877040319DD29D2
:1003B800DF290130E0290030F000F1017008F60073
:1003C8007108F70022032304031DEB29EC29F62901
:1003D8007618EF29F329831203138816F629831256
:1003E8000313881224032504031DFB29FC29062A6C
:1003F8007618FF29032A831203130817062A831283
:1004080003130813F801F9010C10FF308E009C301B
:100418008F000B1173088A00720E8300FE0E7E0E89
:1004280009000430750200300319740203181D2AEC
:100438001E2A352A7418212A252A8312031317160F
:10044800282A83120313171297127508AB00740831
:10045800AA000310AB0CAA0C0310AB0CAA0C2A08B8
:10046800950008000130831203139F000E30831695
:1004780003139F00831203131F151F19442A452ACB
:10048800412A1E08F500831603131E08F40008000D
:10049800FF308316031386008801FF30850087012B
:1004A8008312031388010130870083160313811315
:0A04B8000800013400340134003460
:02400E003A3F37
:00000001FF
